{
  "contractName": "Token",
  "abi": [
    {
      "constant": true,
      "inputs": [],
      "name": "name",
      "outputs": [
        {
          "name": "",
          "type": "string"
        }
      ],
      "payable": false,
      "stateMutability": "view",
      "type": "function"
    },
    {
      "constant": false,
      "inputs": [
        {
          "name": "_spender",
          "type": "address"
        },
        {
          "name": "_value",
          "type": "uint256"
        }
      ],
      "name": "approve",
      "outputs": [
        {
          "name": "success",
          "type": "bool"
        }
      ],
      "payable": false,
      "stateMutability": "nonpayable",
      "type": "function"
    },
    {
      "constant": true,
      "inputs": [],
      "name": "totalSupply",
      "outputs": [
        {
          "name": "",
          "type": "uint256"
        }
      ],
      "payable": false,
      "stateMutability": "view",
      "type": "function"
    },
    {
      "constant": false,
      "inputs": [
        {
          "name": "_from",
          "type": "address"
        },
        {
          "name": "_to",
          "type": "address"
        },
        {
          "name": "_value",
          "type": "uint256"
        }
      ],
      "name": "transferFrom",
      "outputs": [
        {
          "name": "success",
          "type": "bool"
        }
      ],
      "payable": false,
      "stateMutability": "nonpayable",
      "type": "function"
    },
    {
      "constant": true,
      "inputs": [],
      "name": "decimals",
      "outputs": [
        {
          "name": "",
          "type": "uint8"
        }
      ],
      "payable": false,
      "stateMutability": "view",
      "type": "function"
    },
    {
      "constant": true,
      "inputs": [
        {
          "name": "",
          "type": "address"
        }
      ],
      "name": "balanceOf",
      "outputs": [
        {
          "name": "",
          "type": "uint256"
        }
      ],
      "payable": false,
      "stateMutability": "view",
      "type": "function"
    },
    {
      "constant": true,
      "inputs": [],
      "name": "symbol",
      "outputs": [
        {
          "name": "",
          "type": "string"
        }
      ],
      "payable": false,
      "stateMutability": "view",
      "type": "function"
    },
    {
      "constant": false,
      "inputs": [
        {
          "name": "_to",
          "type": "address"
        },
        {
          "name": "_value",
          "type": "uint256"
        }
      ],
      "name": "transfer",
      "outputs": [
        {
          "name": "success",
          "type": "bool"
        }
      ],
      "payable": false,
      "stateMutability": "nonpayable",
      "type": "function"
    },
    {
      "constant": false,
      "inputs": [
        {
          "name": "_spender",
          "type": "address"
        },
        {
          "name": "_value",
          "type": "uint256"
        },
        {
          "name": "_extraData",
          "type": "bytes"
        }
      ],
      "name": "approveAndCall",
      "outputs": [
        {
          "name": "success",
          "type": "bool"
        }
      ],
      "payable": false,
      "stateMutability": "nonpayable",
      "type": "function"
    },
    {
      "constant": true,
      "inputs": [
        {
          "name": "",
          "type": "address"
        },
        {
          "name": "",
          "type": "address"
        }
      ],
      "name": "allowance",
      "outputs": [
        {
          "name": "",
          "type": "uint256"
        }
      ],
      "payable": false,
      "stateMutability": "view",
      "type": "function"
    },
    {
      "inputs": [
        {
          "name": "Name",
          "type": "string"
        },
        {
          "name": "Symbol",
          "type": "string"
        },
        {
          "name": "Decimals",
          "type": "uint8"
        }
      ],
      "payable": false,
      "stateMutability": "nonpayable",
      "type": "constructor"
    },
    {
      "anonymous": false,
      "inputs": [
        {
          "indexed": true,
          "name": "_from",
          "type": "address"
        },
        {
          "indexed": true,
          "name": "_to",
          "type": "address"
        },
        {
          "indexed": false,
          "name": "_value",
          "type": "uint256"
        }
      ],
      "name": "Transfer",
      "type": "event"
    },
    {
      "anonymous": false,
      "inputs": [
        {
          "indexed": true,
          "name": "_owner",
          "type": "address"
        },
        {
          "indexed": true,
          "name": "_spender",
          "type": "address"
        },
        {
          "indexed": false,
          "name": "_value",
          "type": "uint256"
        }
      ],
      "name": "Approval",
      "type": "event"
    }
  ],
  "bytecode": "0x60606040526020604051908101604052806000815250600090805190602001906200002c9291906200012b565b50602060405190810160405280600081525060019080519060200190620000559291906200012b565b50600a600260006101000a81548160ff021916908360ff160217905550600060035534156200008357600080fd5b60405162001095380380620010958339810160405280805182019190602001805182019190602001805190602001909190505060008351118015620000c9575060008251115b1515620000d557600080fd5b8260009080519060200190620000ed9291906200012b565b508160019080519060200190620001069291906200012b565b5080600260006101000a81548160ff021916908360ff160217905550505050620001da565b828054600181600116156101000203166002900490600052602060002090601f016020900481019282601f106200016e57805160ff19168380011785556200019f565b828001600101855582156200019f579182015b828111156200019e57825182559160200191906001019062000181565b5b509050620001ae9190620001b2565b5090565b620001d791905b80821115620001d3576000816000905550600101620001b9565b5090565b90565b610eab80620001ea6000396000f3006060604052600436106100a4576000357c0100000000000000000000000000000000000000000000000000000000900463ffffffff16806306fdde03146100a9578063095ea7b31461013757806318160ddd1461019157806323b872dd146101ba578063313ce5671461023357806370a082311461026257806395d89b41146102af578063a9059cbb1461033d578063cae9ca5114610397578063dd62ed3e14610434575b600080fd5b34156100b457600080fd5b6100bc6104a0565b6040518080602001828103825283818151815260200191508051906020019080838360005b838110156100fc5780820151818401526020810190506100e1565b50505050905090810190601f1680156101295780820380516001836020036101000a031916815260200191505b509250505060405180910390f35b341561014257600080fd5b610177600480803573ffffffffffffffffffffffffffffffffffffffff1690602001909190803590602001909190505061053e565b604051808215151515815260200191505060405180910390f35b341561019c57600080fd5b6101a4610704565b6040518082815260200191505060405180910390f35b34156101c557600080fd5b610219600480803573ffffffffffffffffffffffffffffffffffffffff1690602001909190803573ffffffffffffffffffffffffffffffffffffffff1690602001909190803590602001909190505061070a565b604051808215151515815260200191505060405180910390f35b341561023e57600080fd5b610246610a16565b604051808260ff1660ff16815260200191505060405180910390f35b341561026d57600080fd5b610299600480803573ffffffffffffffffffffffffffffffffffffffff16906020019091905050610a29565b6040518082815260200191505060405180910390f35b34156102ba57600080fd5b6102c2610a41565b6040518080602001828103825283818151815260200191508051906020019080838360005b838110156103025780820151818401526020810190506102e7565b50505050905090810190601f16801561032f5780820380516001836020036101000a031916815260200191505b509250505060405180910390f35b341561034857600080fd5b61037d600480803573ffffffffffffffffffffffffffffffffffffffff16906020019091908035906020019091905050610adf565b604051808215151515815260200191505060405180910390f35b34156103a257600080fd5b61041a600480803573ffffffffffffffffffffffffffffffffffffffff1690602001909190803590602001909190803590602001908201803590602001908080601f01602080910402602001604051908101604052809392919081815260200183838082843782019150505050505091905050610ca6565b604051808215151515815260200191505060405180910390f35b341561043f57600080fd5b61048a600480803573ffffffffffffffffffffffffffffffffffffffff1690602001909190803573ffffffffffffffffffffffffffffffffffffffff16906020019091905050610e24565b6040518082815260200191505060405180910390f35b60008054600181600116156101000203166002900480601f0160208091040260200160405190810160405280929190818152602001828054600181600116156101000203166002900480156105365780601f1061050b57610100808354040283529160200191610536565b820191906000526020600020905b81548152906001019060200180831161051957829003601f168201915b505050505081565b600082600073ffffffffffffffffffffffffffffffffffffffff168173ffffffffffffffffffffffffffffffffffffffff161415151561057d57600080fd5b600083148061060857506000600560003373ffffffffffffffffffffffffffffffffffffffff1673ffffffffffffffffffffffffffffffffffffffff16815260200190815260200160002060008673ffffffffffffffffffffffffffffffffffffffff1673ffffffffffffffffffffffffffffffffffffffff16815260200190815260200160002054145b151561061357600080fd5b82600560003373ffffffffffffffffffffffffffffffffffffffff1673ffffffffffffffffffffffffffffffffffffffff16815260200190815260200160002060008673ffffffffffffffffffffffffffffffffffffffff1673ffffffffffffffffffffffffffffffffffffffff168152602001908152602001600020819055508373ffffffffffffffffffffffffffffffffffffffff163373ffffffffffffffffffffffffffffffffffffffff167f8c5be1e5ebec7d5bd14f71427d1e84f3dd0314c0f7b2291e5b200ac8c7c3b925856040518082815260200191505060405180910390a3600191505092915050565b60035481565b600083600073ffffffffffffffffffffffffffffffffffffffff168173ffffffffffffffffffffffffffffffffffffffff161415151561074957600080fd5b83600073ffffffffffffffffffffffffffffffffffffffff168173ffffffffffffffffffffffffffffffffffffffff161415151561078657600080fd5b61080c600560008873ffffffffffffffffffffffffffffffffffffffff1673ffffffffffffffffffffffffffffffffffffffff16815260200190815260200160002060003373ffffffffffffffffffffffffffffffffffffffff1673ffffffffffffffffffffffffffffffffffffffff1681526020019081526020016000205485610e49565b600560008873ffffffffffffffffffffffffffffffffffffffff1673ffffffffffffffffffffffffffffffffffffffff16815260200190815260200160002060003373ffffffffffffffffffffffffffffffffffffffff1673ffffffffffffffffffffffffffffffffffffffff168152602001908152602001600020819055506108d5600460008873ffffffffffffffffffffffffffffffffffffffff1673ffffffffffffffffffffffffffffffffffffffff1681526020019081526020016000205485610e49565b600460008873ffffffffffffffffffffffffffffffffffffffff1673ffffffffffffffffffffffffffffffffffffffff16815260200190815260200160002081905550610961600460008773ffffffffffffffffffffffffffffffffffffffff1673ffffffffffffffffffffffffffffffffffffffff1681526020019081526020016000205485610e63565b600460008773ffffffffffffffffffffffffffffffffffffffff1673ffffffffffffffffffffffffffffffffffffffff168152602001908152602001600020819055508473ffffffffffffffffffffffffffffffffffffffff168673ffffffffffffffffffffffffffffffffffffffff167fddf252ad1be2c89b69c2b068fc378daa952ba7f163c4a11628f55a4df523b3ef866040518082815260200191505060405180910390a36001925050509392505050565b600260009054906101000a900460ff1681565b60046020528060005260406000206000915090505481565b60018054600181600116156101000203166002900480601f016020809104026020016040519081016040528092919081815260200182805460018160011615610100020316600290048015610ad75780601f10610aac57610100808354040283529160200191610ad7565b820191906000526020600020905b815481529060010190602001808311610aba57829003601f168201915b505050505081565b600082600073ffffffffffffffffffffffffffffffffffffffff168173ffffffffffffffffffffffffffffffffffffffff1614151515610b1e57600080fd5b610b67600460003373ffffffffffffffffffffffffffffffffffffffff1673ffffffffffffffffffffffffffffffffffffffff1681526020019081526020016000205484610e49565b600460003373ffffffffffffffffffffffffffffffffffffffff1673ffffffffffffffffffffffffffffffffffffffff16815260200190815260200160002081905550610bf3600460008673ffffffffffffffffffffffffffffffffffffffff1673ffffffffffffffffffffffffffffffffffffffff1681526020019081526020016000205484610e63565b600460008673ffffffffffffffffffffffffffffffffffffffff1673ffffffffffffffffffffffffffffffffffffffff168152602001908152602001600020819055508373ffffffffffffffffffffffffffffffffffffffff163373ffffffffffffffffffffffffffffffffffffffff167fddf252ad1be2c89b69c2b068fc378daa952ba7f163c4a11628f55a4df523b3ef856040518082815260200191505060405180910390a3600191505092915050565b600080849050610cb6858561053e565b15610e1b578073ffffffffffffffffffffffffffffffffffffffff16638f4ffcb1338630876040518563ffffffff167c0100000000000000000000000000000000000000000000000000000000028152600401808573ffffffffffffffffffffffffffffffffffffffff1673ffffffffffffffffffffffffffffffffffffffff1681526020018481526020018373ffffffffffffffffffffffffffffffffffffffff1673ffffffffffffffffffffffffffffffffffffffff16815260200180602001828103825283818151815260200191508051906020019080838360005b83811015610db0578082015181840152602081019050610d95565b50505050905090810190601f168015610ddd5780820380516001836020036101000a031916815260200191505b5095505050505050600060405180830381600087803b1515610dfe57600080fd5b6102c65a03f11515610e0f57600080fd5b50505060019150610e1c565b5b509392505050565b6005602052816000526040600020602052806000526040600020600091509150505481565b600082821115610e5857600080fd5b818303905092915050565b6000828284011015610e7457600080fd5b8183019050929150505600a165627a7a72305820db1878c2da78dcbbb1810a217b54ab5edbef3312b1e4dc0bd4b38a4203b130fd0029",
  "source": "pragma solidity ^0.4.8;\nimport './../Interfaces/IToken.sol';\nimport './Utils.sol';\n\ninterface tokenRecipient { function receiveApproval(address _from, uint256 _value, address _token, bytes _extraData) public; }\n\n\ncontract Token is Utils ,IToken {\n    string public name=\"\";\n    string public symbol=\"\";\n    uint8 public decimals = 10;\n    uint256 public totalSupply = 0;\n\n    mapping (address => uint256) public balanceOf;\n    mapping (address => mapping (address => uint256)) public allowance;\n\n    //event Transfer(address indexed from, address indexed to, uint256 value);\n\n    event Transfer(address indexed _from, address indexed _to, uint256 _value);\n    event Approval(address indexed _owner, address indexed _spender, uint256 _value);\n\n\n    function Token( string Name, string Symbol, uint8 Decimals ) public {\n       require(bytes(Name).length > 0 && bytes(Symbol).length > 0); // validate input\n\n      name = Name;\n      symbol = Symbol;\n      decimals = Decimals;\n        \n    }\n    \n    function transfer(address _to, uint256 _value)\n        public\n        validAddress(_to)\n        returns (bool success)\n    {\n        balanceOf[msg.sender] = safeSub(balanceOf[msg.sender], _value);\n        balanceOf[_to] = safeAdd(balanceOf[_to], _value);\n        Transfer(msg.sender, _to, _value);\n        return true;\n    }\n\n    function transferFrom(address _from, address _to, uint256 _value)\n        public\n        validAddress(_from)\n        validAddress(_to)\n        returns (bool success)\n    {\n        allowance[_from][msg.sender] = safeSub(allowance[_from][msg.sender], _value);\n        balanceOf[_from] = safeSub(balanceOf[_from], _value);\n        balanceOf[_to] = safeAdd(balanceOf[_to], _value);\n        Transfer(_from, _to, _value);\n        return true;\n    }\n\n    \n   \n  function approve(address _spender, uint256 _value)\n        public\n        validAddress(_spender)\n        returns (bool success)\n    {\n        // if the allowance isn't 0, it can only be updated to 0 to prevent an allowance change immediately after withdrawal\n        require(_value == 0 || allowance[msg.sender][_spender] == 0);\n\n        allowance[msg.sender][_spender] = _value;\n        Approval(msg.sender,_spender, _value);\n        return true;\n    }\n\n   \n    function approveAndCall(address _spender, uint256 _value, bytes _extraData)\n        public\n        returns (bool success)\n        {\n        tokenRecipient spender = tokenRecipient(_spender);\n        if (approve(_spender, _value)) {\n            spender.receiveApproval(msg.sender, _value, this, _extraData);\n            return true;\n        }\n    }\n\n \n   \n}\n\n\n",
  "sourcePath": "A:\\Ethereum\\Projects\\3rdTest\\contracts\\MENACoin\\Token.sol",
  "compiler": {
    "name": "solc",
    "version": "0.4.19+commit.c4cbbb05.Emscripten.clang"
  },
  "schemaVersion": "1.0.1",
  "updatedAt": "2018-03-21T12:24:24.017Z"
}